:100000005DC00000BCC30000E7C300007CC000006E
:100010007AC0000078C0000076C0000074C0000004
:1000200072C0000070C000006EC000006CC0000014
:100030006AC0000068C0000066C0000064C0000024
:10004000C7C2000060C00000AEC10000DEC10000F9
:100050005AC0000058C0000056C0000054C0000044
:1000600052C0000050C00000000000080002010063
:100070000003040700000000000000000102040863
:100080001020408001020408102001020408102002
:10009000040404040404040402020202020203032E
:1000A0000303030300000000250028002B000000CC
:1000B0000000240027002A008D00330211241FBEF7
:1000C000CFEFD8E0DEBFCDBF11E0A0E0B1E0E4EBC0
:1000D000F9E002C005900D92A232B107D9F721E0F4
:1000E000A2E2B1E001C01D92AF3CB207E1F710E01F
:1000F000CCEBD0E003C02297FE0156D4C83BD10719
:10010000D1F75CD255C47CCF26E040E855E260E0F0
:1001100070E085E291E0E7C0089522E046E065E006
:1001200082E291E0EAC2FC01818D228D90E0805C48
:100130009F4F821B91098F7399270895FC01918D20
:10014000828D981731F0828DE80FF11D858D90E03A
:1001500008958FEF9FEF0895FC01918D828D981780
:1001600061F0828DDF01A80FB11D5D968C91928D9B
:100170009F5F9F73928F90E008958FEF9FEF089598
:100180008AE292E0892B41F080E090E0892B21F017
:1001900061D181110C9400000895FC01848DDF0170
:1001A000A80FB11DA35ABF4F2C91848D90E00196EA
:1001B0008F739927848FA689B7892C93A089B189D9
:1001C0008C9180648C93938D848D981306C00288E3
:1001D000F389E02D80818F7D80830895CF93DF9315
:1001E000EC01888D8823C1F0EA89FB89808185FD37
:1001F00005C0A889B9898C9186FD0EC00FB607FC91
:10020000F5CF808185FFF2CFA889B9898C9185FFD0
:10021000EDCFCE01C2DFE8CFDF91CF910895CF922D
:10022000DF92FF920F931F93CF93DF931F92CDB76F
:10023000DEB76C01DC015B969C915B975C968C91C0
:100240005C97981307C05096ED91FC91519780816F
:1002500085FD31C0F601038D10E00F5F1F4F0F7356
:100260001127F02EF601848DF81210C00FB607FC8E
:10027000F9CFD6015096ED91FC915197808185FF81
:10028000F1CFC601698389DF6981ECCF838DE80FE7
:10029000F11DE35AFF4F6083D6015B960C935B9789
:1002A0005296ED91FC91539780818062808381E02A
:1002B00058968C930DC0D6015696ED91FC915797A8
:1002C00060835096ED91FC9151978081806480838A
:1002D00081E090E00F90DF91CF911F910F91FF90FF
:1002E000DF90CF900895BF92CF92DF92EF92FF926E
:1002F000CF93DF93EC016A017B01B22EE889F98983
:1003000082E08083411581EE58076105710599F0FF
:1003100060E079E08DE390E0A701960121D32150C0
:10032000310941095109569547953795279521156A
:1003300080E1380790F0E889F989108260E874E874
:100340008EE190E0A70196010BD3215031094109BC
:1003500051095695479537952795EC85FD8530834E
:10036000EE85FF852083188EEC89FD89B082EA89AD
:10037000FB89808180618083EA89FB898081886034
:100380008083EA89FB89808180688083EA89FB8990
:1003900080818F7D8083DF91CF91FF90EF90DF9000
:1003A000CF90BF9008951F920F920FB60F92112415
:1003B0002F938F939F93EF93FF93E0913501F091EB
:1003C00036018081E0913B01F0913C0182FD12C039
:1003D000908180913E018F5F8F7320913F01821742
:1003E00051F0E0913E01F0E0EB5DFE4F958F809380
:1003F0003E0101C08081FF91EF919F918F912F91DC
:100400000F900FBE0F901F9018951F920F920FB66E
:100410000F9211242F933F934F935F936F937F938A
:100420008F939F93AF93BF93EF93FF9385E291E0F8
:10043000B4DEFF91EF91BF91AF919F918F917F912A
:100440006F915F914F913F912F910F900FBE0F9041
:100450001F90189585E291E066DE21E0892B09F472
:1004600020E0822F0895109228011092270188EE33
:1004700093E0A0E0B0E08093290190932A01A0933B
:100480002B01B0932C0184E091E09093260180939E
:10049000250185EC90E0909332018093310184EC4A
:1004A00090E0909334018093330180EC90E090933E
:1004B00036018093350181EC90E090933801809370
:1004C000370182EC90E090933A018093390186ECF9
:1004D00090E090933C0180933B0110923E0110927A
:1004E0003F0110924001109241010895CF92DF9296
:1004F000EF92FF920F931F93CF93DF936C017A01DA
:10050000EB01E60EF71E00E010E0CE15DF0561F00E
:100510006991D601ED91FC910190F081E02DC60129
:100520000995080F191FF1CFC801DF91CF911F91D5
:100530000F91FF90EF90DF90CF90089561157105B6
:1005400081F0DB010D900020E9F7AD014150510928
:10055000461B570BDC01ED91FC910280F381E02DED
:10056000099480E090E00895DC01ED91FC91019008
:10057000F081E02D09940F931F93CF93DF93EC014B
:100580006DE0F2DF8C016AE0CE01EEDF800F911F9B
:10059000DF91CF911F910F9108950F931F93CF93E8
:1005A000DF93EC01CBDF8C01CE01E5DF800F911FE3
:1005B000DF91CF911F910F910895089553D0FDDFE2
:1005C000A3DDC0ECD0E0A8DD2097E9F3D9DDFBCFB7
:1005D0001F920F920FB60F9211242F933F938F9378
:1005E0009F93AF93BF938091C3019091C401A09159
:1005F000C501B091C6013091C20123E0230F2D3710
:1006000020F40196A11DB11D05C026E8230F029616
:10061000A11DB11D2093C2018093C3019093C40119
:10062000A093C501B093C6018091C7019091C80104
:10063000A091C901B091CA010196A11DB11D80937D
:10064000C7019093C801A093C901B093CA01BF919B
:10065000AF919F918F913F912F910F900FBE0F906F
:100660001F901895789484B5826084BD84B58160AC
:1006700084BD85B5826085BD85B5816085BDEEE6AA
:10068000F0E0808181608083E1E8F0E01082808189
:1006900082608083808181608083E0E8F0E08081F7
:1006A00081608083E1EBF0E0808184608083E0EB17
:1006B000F0E0808181608083EAE7F0E080818460FF
:1006C000808380818260808380818160808380815B
:1006D000806880831092C100089560E171E085E236
:1006E00091E05BCFCF93DF93EC0160E0888103D191
:1006F00060E08981DF91CF91FEC0CF93DF93EC0161
:10070000862F688349832A8361E0BCD061E08981B8
:10071000B9D060E08A81B6D0CE01E4DF8A81823030
:1007200021F0833021F481E003C080E001C08FEF2D
:1007300041E050E06DE673E0DF91CF9100C0823080
:10074000E8F4E82FF0E0EE0FFF1FE553FE4F718352
:100750006083813041F0809169008C7F842B80938D
:100760006900E89A089580916900440F551F440F6D
:10077000551F837F842B80936900E99A08951F9207
:100780000F920FB60F9211242F933F934F935F93C5
:100790006F937F938F939F93AF93BF93EF93FF9349
:1007A0008091CB019091CC01892B29F0E091CB0174
:1007B000F091CC010995FF91EF91BF91AF919F917D
:1007C0008F917F916F915F914F913F912F910F90FA
:1007D0000FBE0F901F9018951F920F920FB60F9299
:1007E00011242F933F934F935F936F937F938F9336
:1007F0009F93AF93BF93EF93FF938091CD0190911F
:10080000CE01892B29F0E091CD01F091CE0109951F
:10081000FF91EF91BF91AF919F918F917F916F91D8
:100820005F914F913F912F910F900FBE0F901F90AE
:100830001895833081F028F4813099F08230A1F04E
:1008400008958730A9F08830B9F08430D1F48091D0
:1008500080008F7D03C0809180008F77809380001F
:10086000089584B58F7702C084B58F7D84BD0895C7
:100870008091B0008F7703C08091B0008F7D80930E
:10088000B0000895CF93DF9390E0FC01E458FF4F50
:100890002491FC01E057FF4F8491882349F190E0B7
:1008A000880F991FFC01E255FF4FA591B4918C551B
:1008B0009F4FFC01C591D4919FB7611108C0F89476
:1008C0008C91209582238C93888182230AC0623088
:1008D00051F4F8948C91322F309583238C93888136
:1008E000822B888304C0F8948C91822B8C939FBFB9
:1008F000DF91CF9108950F931F93CF93DF931F92B2
:10090000CDB7DEB7282F30E0F901E859FF4F8491C9
:10091000F901E458FF4F1491F901E057FF4F04919A
:100920000023C1F0882319F0698383DF6981E02FF8
:10093000F0E0EE0FFF1FEC55FF4FA591B4919FB76C
:10094000F8948C91611103C01095812301C0812B13
:100950008C939FBF0F90DF91CF911F910F910895BE
:10096000A1E21A2EAA1BBB1BFD010DC0AA1FBB1FB3
:10097000EE1FFF1FA217B307E407F50720F0A21B25
:10098000B30BE40BF50B661F771F881F991F1A9492
:1009900069F760957095809590959B01AC01BD01BC
:1009A000CF010895EE0FFF1F0590F491E02D0994FB
:0409B000F894FFCFE9
:1009B400000000000F0176029300AC009E00EE00E0
:1009C4006C696E656120646520656E636F64657231
:0209D400000021
:00000001FF
