:1000000063C0000086C0000084C0000082C0000001
:1000100080C000007EC000007CC000007AC00000EC
:1000200078C0000076C0000074C0000072C00000FC
:1000300070C000006EC000006CC000006AC000000C
:1000400076C4000066C00000B8C20000E8C200002C
:1000500060C000005EC000005CC000005AC000002C
:1000600058C0000056C00000000000080002010057
:100070000003040700000000000000000102040863
:100080001020408001020408102001020408102002
:10009000040404040404040402020202020203032E
:1000A00003030303000000002300260029000000D2
:1000B0000000250028002B0000000000240027007D
:1000C0002A0093013D03B10711241FBECFEFD8E0F2
:1000D000DEBFCDBF11E0A0E0B1E0EEEEFFE002C078
:1000E00005900D92AE31B107D9F721E0AEE1B1E054
:1000F00001C01D92A23DB207E1F710E0C8ECD0E0CC
:1001000003C02297FE0154D7C23CD107D1F705D4D2
:100110006CC776CF26E040E855E260E070E08AE206
:1001200091E0EBD161E088E291E0A5D66FEF88E243
:1001300091E000D761E086E291E09DD66FEF86E224
:1001400091E0F8C664E670E080E090E05DD420E4E1
:1001500032E44FE050E060E089E0B6D420E432E4DD
:100160004FE050E061E089E0AFD420E432E44FE0BA
:1001700050E0672B682B692B21F061E089E0A4D463
:1001800006C061E089E0A0D4719561957109709312
:1001900023016093220120E432E44FE050E060E06C
:1001A0008AE092D420E432E44FE050E061E08AE05B
:1001B0008BD420E432E44FE050E0672B682B692BAE
:1001C00021F061E08AE080D406C061E08AE07CD45E
:1001D000719561957109709325016093240161E027
:1001E00071E08AE291E0CAD260912201709123010C
:1001F0004AE050E08AE291E079D368E071E08AE277
:1002000091E0BCD260912401709125014AE050E058
:100210008AE291E06BD360E071E08AE291E0AED2D5
:1002200060912001709121014AE050E08AE291E062
:100230005DD367E071E08AE291E0A0D260911E0197
:1002400070911F014AE050E08AE291E04FD3209183
:1002500024013091250180911E0190911F012938C0
:1002600043E1340714F0019704C02838334129F0E2
:10027000019690931F0180931E01209122013091DD
:1002800023018091200190912101293843E1340715
:1002900014F0019704C02838334129F00196909357
:1002A00021018093200180911E0190911F018F3FB9
:1002B000910539F034F08FEF90E090931F01809317
:1002C0001E0180912001909121018F3F910539F00D
:1002D00034F08FEF90E09093210180932001809182
:1002E0001E0190911F018436910534F484E690E05C
:1002F00090931F0180931E01809120019091210114
:100300008436910534F484E690E090932101809343
:10031000200160911E0188E291E00CD660912001DD
:1003200086E291E007C642E061E088E291E04FD5C5
:1003300042E062E086E291E04AC5FC01818D228DB7
:1003400090E0805C9F4F821B91098F7399270895DD
:10035000FC01918D828D981731F0828DE80FF11D8F
:10036000858D90E008958FEF9FEF0895FC01918DAA
:10037000828D981761F0828DDF01A80FB11D5D9607
:100380008C91928D9F5F9F73928F90E008958FEF75
:100390009FEF089584E393E0892B41F080E090E0A3
:1003A000892B21F061D181110C9400000895FC018A
:1003B000848DDF01A80FB11DA35ABF4F2C91848DEE
:1003C00090E001968F739927848FA689B7892C9323
:1003D000A089B1898C9180648C93938D848D9813BE
:1003E00006C00288F389E02D80818F7D8083089587
:1003F000CF93DF93EC01888D8823C1F0EA89FB89D4
:10040000808185FD05C0A889B9898C9186FD0EC0C3
:100410000FB607FCF5CF808185FFF2CFA889B98997
:100420008C9185FFEDCFCE01C2DFE8CFDF91CF9178
:100430000895CF92DF92FF920F931F93CF93DF9394
:100440001F92CDB7DEB76C01DC015B969C915B9788
:100450005C968C915C97981307C05096ED91FC9137
:100460005197808185FD31C0F601038D10E00F5F4B
:100470001F4F0F731127F02EF601848DF81210C054
:100480000FB607FCF9CFD6015096ED91FC9151972C
:10049000808185FFF1CFC601698389DF6981ECCF57
:1004A000838DE80FF11DE35AFF4F6083D6015B9601
:1004B0000C935B975296ED91FC91539780818062EB
:1004C000808381E058968C930DC0D6015696ED91AD
:1004D000FC91579760835096ED91FC9151978081E4
:1004E0008064808381E090E00F90DF91CF911F9135
:1004F0000F91FF90DF90CF900895BF92CF92DF923F
:10050000EF92FF92CF93DF93EC016A017B01B22E51
:10051000E889F98982E08083411581EE58076105F9
:10052000710599F060E079E08DE390E0A701960114
:100530001BD52150310941095109569547953795E9
:100540002795211580E1380790F0E889F989108214
:1005500060E874E88EE190E0A701960105D521508E
:100560003109410951095695479537952795EC85ED
:10057000FD853083EE85FF852083188EEC89FD890B
:10058000B082EA89FB89808180618083EA89FB8966
:10059000808188608083EA89FB898081806880838C
:1005A000EA89FB8980818F7D8083DF91CF91FF90E5
:1005B000EF90DF90CF90BF9008951F920F920FB6EB
:1005C0000F9211242F938F939F93EF93FF93E091BA
:1005D0003A01F0913B018081E0914001F0914101AD
:1005E00082FD12C09081809143018F5F8F732091B3
:1005F0004401821751F0E0914301F0E0E65DFE4FC7
:10060000958F8093430101C08081FF91EF919F916D
:100610008F912F910F900FBE0F901F9018951F92E2
:100620000F920FB60F9211242F933F934F935F9326
:100630006F937F938F939F93AF93BF93EF93FF93AA
:100640008AE291E0B4DEFF91EF91BF91AF919F916B
:100650008F917F916F915F914F913F912F910F906B
:100660000FBE0F901F9018958AE291E066DE21E0A0
:10067000892B09F420E0822F089510922D01109209
:100680002C0188EE93E0A0E0B0E080932E019093DF
:100690002F01A0933001B093310182E191E090935A
:1006A0002B0180932A0185EC90E090933701809391
:1006B000360184EC90E0909339018093380180EC0E
:1006C00090E090933B0180933A0181EC90E090930D
:1006D0003D0180933C0182EC90E090933F01809338
:1006E0003E0186EC90E0909341018093400110928E
:1006F0004301109244011092450110924601089561
:10070000CF92DF92EF92FF920F931F93CF93DF93DD
:100710006C017A01EB01E60EF71E00E010E0CE1549
:10072000DF0561F06991D601ED91FC910190F081B6
:10073000E02DC6010995080F191FF1CFC801DF91FF
:10074000CF911F910F91FF90EF90DF90CF90089580
:100750006115710581F0DB010D900020E9F7AD0115
:1007600041505109461B570BDC01ED91FC91028071
:10077000F381E02D099480E090E00895E9CFDC0159
:10078000ED91FC910190F081E02D09940F931F935E
:10079000CF93DF93EC016DE0F2DF8C016AE0CE01D4
:1007A000EEDF800F911FDF91CF911F910F91089580
:1007B0008F929F92AF92BF92CF92DF92EF92FF9271
:1007C0000F931F93CF93DF93CDB7DEB7A1970FB6EB
:1007D000F894DEBF0FBECDBF7C01C42EE52FCB0148
:1007E000D22E19A221E02D1510F02AE0D22E8E0172
:1007F0000F5D1F4F8D2C912CA12CB12C6C2D7E2FB9
:10080000A5019401B1D38C2DD29E801911240150E1
:1008100011098A3014F4805D01C0895CF80180837D
:10082000211531054105510521F0C22EE32FCA01E2
:10083000E5CFB801C7018CDFA1960FB6F894DEBFF3
:100840000FBECDBFDF91CF911F910F91FF90EF9021
:10085000DF90CF90BF90AF909F908F900895CF92F0
:10086000DF92EF92FF920F931F93CF93DF93EC01F0
:100870006A017B012115310579F4E881F981019044
:10088000F081E02D642FDF91CF911F910F91FF90A8
:10089000EF90DF90CF9009942A303105D9F477FF9B
:1008A00018C06DE26CDF8C0144275527BA014C1942
:1008B0005D096E097F092AE0CE017ADF800F911F62
:1008C000DF91CF911F910F91FF90EF90DF90CF902C
:1008D00008952AE0B701A601CE01DF91CF911F91C3
:1008E0000F91FF90EF90DF90CF9062CF0F931F9307
:1008F000CF93DF93EC019A01AB01662757FD60951A
:10090000762FADDF8C01CE0141DF800F911FDF918B
:10091000CF911F910F91089508959BD0FDDFFADBD1
:10092000CAECD1E00FDC2097E9F334DDFBCF1F9256
:100930000F920FB60F9211242F933F938F939F9393
:10094000AF93BF938091C8019091C901A091CA0152
:10095000B091CB013091C70123E0230F2D3720F454
:100960000196A11DB11D05C026E8230F0296A11D09
:10097000B11D2093C7018093C8019093C901A09332
:10098000CA01B093CB018091CC019091CD01A0918F
:10099000CE01B091CF010196A11DB11D8093CC0174
:1009A0009093CD01A093CE01B093CF01BF91AF91B1
:1009B0009F918F913F912F910F900FBE0F901F909D
:1009C00018953FB7F8948091CC019091CD01A091FA
:1009D000CE01B091CF0126B5A89B05C02F3F19F0DD
:1009E0000196A11DB11D3FBF6627782F892F9A2F31
:1009F000620F711D811D911D42E0660F771F881FD8
:100A0000991F4A95D1F70895CF92DF92EF92FF9206
:100A1000CF93DF936B017C01D4DFEB01C114D104D0
:100A2000E104F10479F0D4D0CCDF6C1B7D0B683E7F
:100A30007340A0F381E0C81AD108E108F108C85159
:100A4000DC4FECCFDF91CF91FF90EF90DF90CF9014
:100A50000895789484B5826084BD84B5816084BD36
:100A600085B5826085BD85B5816085BDEEE6F0E027
:100A7000808181608083E1E8F0E010828081826083
:100A80008083808181608083E0E8F0E08081816004
:100A90008083E1EBF0E0808184608083E0EBF0E034
:100AA000808181608083EAE7F0E0808184608083D8
:100AB0008081826080838081816080838081806882
:100AC00080831092C1000895CF92DF92EF92FF923F
:100AD0000F931F93CF93DF9390E0FC01E458FF4FF7
:100AE000D491FC01E057FF4F7491611102C0C0E046
:100AF00001C0CD2FDA01C901BF70672F70E0660F0A
:100B0000771F6C557F4F00E010E09801FB01E590E6
:100B1000F490F70140814D234C131EC06801790108
:100B20004FEFC41AD40AE40AF40A081719072A076F
:100B30003B0709F441C097018601E8CF68017901BC
:100B4000FFEFCF1ADF0AEF0AFF0A081719072A0773
:100B50003B0791F197018601FB01E590F490F701C5
:100B600040814D234C13EACF801B910BA20BB30B9A
:100B700020E030E0A901FB01E590F490F701F0805E
:100B8000FD22FC120AC0281739074A075B07A1F0AB
:100B90002F5F3F4F4F4F5F4FEECFA8E1B0E01BD22A
:100BA000605F7F4F8F4F9F4F24E096958795779595
:100BB00067952A95D1F703C060E070E0CB01DF9123
:100BC000CF911F910F91FF90EF90DF90CF900895FC
:100BD0000895833081F028F4813099F08230A1F0BB
:100BE00008958730A9F08830B9F08430D1F480912D
:100BF00080008F7D03C0809180008F77809380007C
:100C0000089584B58F7702C084B58F7D84BD089523
:100C10008091B0008F7703C08091B0008F7D80936A
:100C2000B0000895CF93DF9390E0FC01E458FF4FAC
:100C30002491FC01E057FF4F8491882349F190E013
:100C4000880F991FFC01E854FF4FA591B49182557C
:100C50009F4FFC01C591D4919FB7611108C0F894D2
:100C60008C91209582238C93888182230AC06230E4
:100C700051F4F8948C91322F309583238C93888192
:100C8000822B888304C0F8948C91822B8C939FBF15
:100C9000DF91CF9108950F931F93CF93DF931F920E
:100CA000CDB7DEB7282F30E0F901E859FF4F849126
:100CB000F901E458FF4F1491F901E057FF4F0491F7
:100CC0000023C1F0882319F0698383DF6981E02F55
:100CD000F0E0EE0FFF1FE255FF4FA591B4919FB7D3
:100CE000F8948C91611103C01095812301C0812B70
:100CF0008C939FBF0F90DF91CF911F910F9108951B
:100D000084B5836884BD17BC61E086E08BCF84B571
:100D1000836284BD18BC61E085E084CFCF93DF930C
:100D200060E08CE0B8DF60E088E0B5DFC7E0D0E0ED
:100D300060E084E0B0DF8091D10190E00C2E02C031
:100D4000959587950A94E2F780FF02C061E001C0A3
:100D500060E088E0A0DF61E084E09DDF219740F75C
:100D600061E08CE0DF91CF9196CFCF93DF93EC01E0
:100D700061E08CE057DF61E087E054DF61E088E00C
:100D800051DF61E084E04EDF1092D101CE01C6DF79
:100D900060E087E0DF91CF917ECFE0EBF0E09081E3
:100DA0009368908387708093B1001092B30061E0E4
:100DB0008BE038CFE0EBF0E0908193629083877016
:100DC0008093B1001092B40061E083E02BCF1F93B9
:100DD000CF93DF931F92CDB7DEB7FC01142F608352
:100DE000418380ED91E06983C0DF6981623019F150
:100DF00088F4613009F03AC08091D101837F8093FB
:100E0000D10180ED91E08ADF812F0F90DF91CF91AA
:100E10001F91C3CF6330E9F0643041F58091D10177
:100E20008E7B8093D10180ED91E078DF0F90DF9190
:100E3000CF911F916CCF8091D1018D7E8093D10194
:100E400080ED91E06BDF812F0F90DF91CF911F91AB
:100E5000B1CF8091D1018F758093D10180ED91E068
:100E60005DDF0F90DF91CF911F914ACF0F90DF91FF
:100E7000CF911F910895FC018081823091F018F488
:100E8000813031F00895833031F0843039F00895A5
:100E900073E0E2E008C077E0E5E005C076E0E0E07E
:100EA00002C074E0E1E06230D1F0643069F1613099
:100EB00009F03FC041E050E09A01072E01C0220F27
:100EC0000A94EAF720950E2E01C0440F0A94EAF71F
:100ED0008091D101842B28232093D10127C021E0C8
:100EE00030E0A9010E2E01C0440F0A94EAF74095A4
:100EF0008091D1014823072E01C0220F0A94EAF7FE
:100F0000422B4093D10112C081E090E0AC0101C0BE
:100F1000440FEA95EAF701C0880F7A95EAF7842B27
:100F200080959091D10198239093D10180ED91E02B
:100F3000F5CE0895FC018081823061F018F4813093
:100F400031F00895833049F0843049F0089560937A
:100F5000B30008956093B400089567BD089568BD17
:100F600008951092D0010895A1E21A2EAA1BBB1B6E
:100F7000FD010DC0AA1FBB1FEE1FFF1FA217B30765
:100F8000E407F50720F0A21BB30BE40BF50B661F7B
:100F9000771F881F991F1A9469F76095709580953F
:100FA00090959B01AC01BD01CF010895EE0FFF1F8D
:100FB0000590F491E02D0994A29FB001B39FC00168
:100FC000A39F700D811D1124911DB29F700D811D75
:100FD0001124911D0895F0DFA59F900DB49F900DF1
:0E0FE000A49F800D911D11240895F894FFCF59
:100FEE00564465723A200056497A713A2000000044
:0E0FFE000000190280039D01B601A801F80150
:00000001FF
