:100000005DC0000080C000007EC000007CC0000019
:100010007AC0000078C0000076C0000074C0000004
:1000200072C0000070C000006EC000006CC0000014
:100030006AC0000068C0000066C0000064C0000024
:1000400092C0000060C000005EC000005CC0000004
:100050005AC0000058C0000056C0000054C0000044
:1000600052C0000050C00000000000080002010063
:100070000003040700000000000000000102040863
:100080001020408001020408102001020408102002
:10009000040404040404040402020202020203032E
:1000A0000303030300000000250028002B000000CC
:1000B0000000240027002A009D00690211241FBEB1
:1000C000CFEFD8E0DEBFCDBF11E0A0E0B1E0E6E1C8
:1000D000F6E002C005900D92A030B107D9F721E0FB
:1000E000A0E0B1E001C01D92AF30B207E1F710E02F
:1000F000CCEBD0E003C02297FE0187D2C83BD107EA
:10010000D1F726D086C27CCF64E082E091E06BD14B
:1001100062E082E091E067D16FEF82E091E0C2D1CE
:1001200064E080E091E05FD161E080E091E05BD14C
:100130006FEF80E091E0B6C1089542E061E082E0B7
:1001400091E0FDD042E062E080E091E0F8C00895E7
:1001500054D0FDDFD9DFC0E0D0E0EEDF2097E9F337
:100160000E940000FACF1F920F920FB60F92112437
:100170002F933F938F939F93AF93BF9380910501EC
:1001800090910601A0910701B091080130910401FE
:1001900023E0230F2D3720F40196A11DB11D05C0CA
:1001A00026E8230F0296A11DB11D20930401809320
:1001B000050190930601A0930701B0930801809177
:1001C000090190910A01A0910B01B0910C010196D7
:1001D000A11DB11D8093090190930A01A0930B0109
:1001E000B0930C01BF91AF919F918F913F912F914F
:1001F0000F900FBE0F901F901895789484B5826071
:1002000084BD84B5816084BD85B5826085BD85B5BA
:10021000816085BDEEE6F0E0808181608083E1E869
:10022000F0E01082808182608083808181608083A1
:10023000E0E8F0E0808181608083E1EBF0E08081A4
:1002400084608083E0EBF0E0808181608083EAE776
:10025000F0E08081846080838081826080838081FF
:10026000816080838081806880831092C1000895BE
:1002700084B5836884BD17BC61E086E056C184B54F
:10028000836284BD18BC61E085E04FC1CF93DF93EA
:1002900060E08CE083D160E088E080D1C7E0D0E00E
:1002A00060E084E07BD180910E0190E00C2E02C0D2
:1002B000959587950A94E2F780FF02C061E001C03E
:1002C00060E088E06BD161E084E068D1219740F77D
:1002D00061E08CE0DF91CF9161C1CF93DF93EC01BE
:1002E00061E08CE022D161E087E01FD161E088E02D
:1002F0001CD161E084E019D110920E01CE01C6DF5D
:1003000060E087E0DF91CF9149C1E0EBF0E09081C0
:100310009368908387708093B1001092B30061E07E
:100320008BE003C1E0EBF0E09081936290838770F3
:100330008093B1001092B40061E083E0F6C01F9397
:10034000CF93DF931F92CDB7DEB7FC01142F6083EC
:1003500041838DE091E06983C0DF6981623019F1EA
:1003600088F4613009F03AC080910E01837F809358
:100370000E018DE091E08ADF812F0F90DF91CF9108
:100380001F91C3CF6330E9F0643041F580910E01D5
:100390008E7B80930E018DE091E078DF0F90DF91EE
:1003A000CF911F916CCF80910E018D7E80930E01B5
:1003B0008DE091E06BDF812F0F90DF91CF911F9146
:1003C000B1CF80910E018F7580930E018DE091E089
:1003D0005DDF0F90DF91CF911F914ACF0F90DF919A
:1003E000CF911F910895FC018081823091F018F423
:1003F000813031F00895833031F0843039F0089540
:1004000073E0E2E008C077E0E5E005C076E0E0E018
:1004100002C074E0E1E06230D1F0643069F1613033
:1004200009F03FC041E050E09A01072E01C0220FC1
:100430000A94EAF720950E2E01C0440F0A94EAF7B9
:1004400080910E01842B282320930E0127C021E0E8
:1004500030E0A9010E2E01C0440F0A94EAF740953E
:1004600080910E014823072E01C0220F0A94EAF75B
:10047000422B40930E0112C081E090E0AC0101C01C
:10048000440FEA95EAF701C0880F7A95EAF7842BC2
:10049000809590910E01982390930E018DE091E04C
:1004A000F5CE0895FC018081823061F018F481302E
:1004B00031F00895833049F0843049F00895609315
:1004C000B30008956093B400089567BD089568BDB2
:1004D000089510920D010895833081F028F4813041
:1004E00099F08230A1F008958730A9F08830B9F0F2
:1004F0008430D1F4809180008F7D03C08091800092
:100500008F7780938000089584B58F7702C084B57B
:100510008F7D84BD08958091B0008F7703C0809156
:10052000B0008F7D8093B0000895CF93DF9390E06B
:10053000FC01E458FF4F2491FC01E057FF4F8491E8
:10054000882349F190E0880F991FFC01E255FF4F85
:10055000A591B4918C559F4FFC01C591D4919FB743
:10056000611108C0F8948C91209582238C93888126
:1005700082230AC0623051F4F8948C91322F309566
:1005800083238C938881822B888304C0F8948C9178
:10059000822B8C939FBFDF91CF9108950F931F9370
:1005A000CF93DF931F92CDB7DEB7282F30E0F9014C
:1005B000E859FF4F8491F901E458FF4F1491F90174
:1005C000E057FF4F04910023C1F0882319F069839D
:1005D00083DF6981E02FF0E0EE0FFF1FEC55FF4F46
:1005E000A591B4919FB7F8948C91611103C01095B7
:1005F000812301C0812B8C939FBF0F90DF91CF91FE
:100600001F910F910895EE0FFF1F0590F491E02DBB
:060610000994F894FFCFED
:00000001FF
