:100000005CC0000020C300004BC300007BC00000A8
:1000100079C0000077C0000075C0000073C0000008
:1000200071C000006FC000006DC000006BC0000018
:1000300069C0000067C0000065C0000063C0000028
:1000400067C300005FC0000013C2000043C200008D
:1000500059C0000057C0000055C0000053C0000048
:1000600051C000004FC00000000000080002010065
:100070000003040700000000000000000102040863
:100080001020408001020408102001020408102002
:10009000040404040404040402020202020203032E
:1000A0000303030300000000250028002B000000CC
:1000B0000000240027002A00980211241FBECFEF61
:1000C000D8E0DEBFCDBF11E0A0E0B1E0EAEEF9E09C
:1000D00002C005900D92A831B107D9F721E0A8E13F
:1000E000B1E001C01D92A83CB207E1F710E0CAEBF5
:1000F000D0E003C02297FE0172D4C83BD107D1F7EC
:10010000FDD271C47DCF80911C0190911D0101969B
:1001100090931D0180931C01089580911A01909184
:100120001B01019690931B0180931A01089526E00C
:1001300040E855E260E070E08EE191E039D141E0C5
:1001400050E063E870E080E05ED241E050E06DE8AE
:1001500070E081E058D261E08091040187D361E0D2
:100160008091000183D361E0809106017FD361E03B
:10017000809102017BC361E080910401B0D360E013
:1001800080910601ACD361E080910001A8D360E0CA
:1001900080910201A4C360E080910401A0D361E0DA
:1001A000809106019CD360E08091000198D361E0CA
:1001B0008091020194C381E090E020911801309178
:1001C0001901232B11F080E090E0909319018093A6
:1001D0001801892B09F0CFCFDECF80911C019091BF
:1001E0001D0168E270E0B0D3892B09F4E4CF0895D3
:1001F000FC01818D228D90E0805C9F4F821B9109D4
:100200008F7399270895FC01918D828D981731F095
:10021000828DE80FF11D858D90E008958FEF9FEF9F
:100220000895FC01918D828D981761F0828DDF0118
:10023000A80FB11D5D968C91928D9F5F9F73928FD9
:1002400090E008958FEF9FEF08958FE892E0892B5B
:1002500041F080E090E0892B21F061D181110C9474
:1002600000000895FC01848DDF01A80FB11DA35A81
:10027000BF4F2C91848D90E001968F739927848FC6
:10028000A689B7892C93A089B1898C9180648C93BD
:10029000938D848D981306C00288F389E02D8081A8
:1002A0008F7D80830895CF93DF93EC01888D882321
:1002B000C1F0EA89FB89808185FD05C0A889B989DB
:1002C0008C9186FD0EC00FB607FCF5CF808185FFAF
:1002D000F2CFA889B9898C9185FFEDCFCE01C2DF1D
:1002E000E8CFDF91CF910895CF92DF92FF920F93E5
:1002F0001F93CF93DF931F92CDB7DEB76C01DC0164
:100300005B969C915B975C968C915C97981307C069
:100310005096ED91FC915197808185FD31C0F60199
:10032000038D10E00F5F1F4F0F731127F02EF601A2
:10033000848DF81210C00FB607FCF9CFD601509685
:10034000ED91FC915197808185FFF1CFC6016983C2
:1003500089DF6981ECCF838DE80FF11DE35AFF4FF0
:100360006083D6015B960C935B975296ED91FC915E
:10037000539780818062808381E058968C930DC072
:10038000D6015696ED91FC91579760835096ED916A
:10039000FC91519780818064808381E090E00F9090
:1003A000DF91CF911F910F91FF90DF90CF90089533
:1003B000BF92CF92DF92EF92FF92CF93DF93EC0147
:1003C0006A017B01B22EE889F98982E080834115B8
:1003D00081EE58076105710599F060E079E08DE3E1
:1003E00090E0A7019601C3D221503109410951097A
:1003F0005695479537952795211580E1380790F058
:10040000E889F989108260E874E88EE190E0A7013C
:100410009601ADD2215031094109510956954795B0
:1004200037952795EC85FD853083EE85FF85208304
:10043000188EEC89FD89B082EA89FB898081806110
:100440008083EA89FB89808188608083EA89FB89CF
:10045000808180688083EA89FB8980818F7D8083A9
:10046000DF91CF91FF90EF90DF90CF90BF900895F4
:100470001F920F920FB60F9211242F938F939F9379
:10048000EF93FF93E0912E01F0912F018081E09195
:100490003401F091350182FD12C0908180913701C5
:1004A0008F5F8F7320913801821751F0E0913701EF
:1004B000F0E0E25EFE4F958F8093370101C08081AE
:1004C000FF91EF919F918F912F910F900FBE0F9001
:1004D0001F9018951F920F920FB60F9211242F9311
:1004E0003F934F935F936F937F938F939F93AF93BC
:1004F000BF93EF93FF938EE191E0B4DEFF91EF9114
:10050000BF91AF919F918F917F916F915F914F912B
:100510003F912F910F900FBE0F901F9018958EE175
:1005200091E066DE21E0892B09F420E0822F089516
:10053000109221011092200188EE93E0A0E0B0E03B
:100540008093220190932301A0932401B09325016D
:100550008CE091E090931F0180931E0185EC90E068
:1005600090932B0180932A0184EC90E090932D01CD
:1005700080932C0180EC90E090932F0180932E01CA
:1005800081EC90E0909331018093300182EC90E017
:10059000909333018093320186EC90E09093350183
:1005A0008093340110923701109238011092390172
:1005B00010923A010895CF92DF92EF92FF920F933B
:1005C0001F93CF93DF936C017A01EB01E60EF71EC8
:1005D00000E010E0CE15DF0561F06991D601ED91E4
:1005E000FC910190F081E02DC6010995080F191FBB
:1005F000F1CFC801DF91CF911F910F91FF90EF9044
:10060000DF90CF9008958230E8F4E82FF0E0EE0F0D
:10061000FF1FE554FE4F71836083813041F080916C
:1006200069008C7F842B80936900E89A08958091FB
:100630006900440F551F440F551F837F842B8093FF
:100640006900E99A08951F920F920FB60F92112434
:100650002F933F934F935F936F937F938F939F93CA
:10066000AF93BF93EF93FF938091BB019091BC0137
:10067000892B29F0E091BB01F091BC010995FF9114
:10068000EF91BF91AF919F918F917F916F915F910A
:100690004F913F912F910F900FBE0F901F90189583
:1006A0001F920F920FB60F9211242F933F934F93E7
:1006B0005F936F937F938F939F93AF93BF93EF93CA
:1006C000FF938091BD019091BE01892B29F0E091AB
:1006D000BD01F091BE010995FF91EF91BF91AF91DE
:1006E0009F918F917F916F915F914F913F912F914A
:1006F0000F900FBE0F901F901895089553D0FDDFF7
:1007000016DDC5E2D1E069DD2097E9F39EDDFBCF80
:100710001F920F920FB60F9211242F933F938F9336
:100720009F93AF93BF938091C0019091C101A0911D
:10073000C201B091C3013091BF0123E0230F2D37D7
:1007400020F40196A11DB11D05C026E8230F0296D5
:10075000A11DB11D2093BF018093C0019093C101E1
:10076000A093C201B093C3018091C4019091C501CF
:10077000A091C601B091C7010196A11DB11D809342
:10078000C4019093C501A093C601B093C701BF9166
:10079000AF919F918F913F912F910F900FBE0F902E
:1007A0001F901895789484B5826084BD84B581606B
:1007B00084BD85B5826085BD85B5816085BDEEE669
:1007C000F0E0808181608083E1E8F0E01082808148
:1007D00082608083808181608083E0E8F0E08081B6
:1007E00081608083E1EBF0E0808184608083E0EBD6
:1007F000F0E0808181608083EAE7F0E080818460BE
:100800008083808182608083808181608083808119
:10081000806880831092C1000895833081F028F4AD
:10082000813099F08230A1F008958730A9F08830A6
:10083000B9F08430D1F4809180008F7D03C0809125
:1008400080008F7780938000089584B58F7702C0F1
:1008500084B58F7D84BD08958091B0008F7703C0EB
:100860008091B0008F7D8093B0000895CF93DF9387
:1008700090E0FC01E458FF4F2491FC01E057FF4F4A
:100880008491882349F190E0880F991FFC01E2557B
:10089000FF4FA591B4918C559F4FFC01C591D49108
:1008A0009FB7611108C0F8948C91209582238C9396
:1008B000888182230AC0623051F4F8948C91322FDF
:1008C000309583238C938881822B888304C0F8948D
:1008D0008C91822B8C939FBFDF91CF9108950F93C2
:1008E0001F93CF93DF931F92CDB7DEB7282F30E051
:1008F000F901E859FF4F8491F901E458FF4F149131
:10090000F901E057FF4F04910023C1F0882319F04B
:10091000698383DF6981E02FF0E0EE0FFF1FEC5564
:10092000FF4FA591B4919FB7F8948C91611103C0CA
:100930001095812301C0812B8C939FBF0F90DF9175
:10094000CF911F910F91089597FB072E16F40094F5
:1009500006D077FD08D02DD007FC05D03EF4909549
:1009600081959F4F0895709561957F4F0895A1E2FD
:100970001A2EAA1BBB1BFD010DC0AA1FBB1FEE1F19
:10098000FF1FA217B307E407F50720F0A21BB30B64
:10099000E40BF50B661F771F881F991F1A9469F7E0
:1009A00060957095809590959B01AC01BD01CF013C
:1009B0000895AA1BBB1B51E107C0AA1FBB1FA617A6
:1009C000B70710F0A61BB70B881F991F5A95A9F7F8
:1009D00080959095BC01CD010895EE0FFF1F059005
:0A09E000F491E02D0994F894FFCF84
:1009EA000A000B0005000600000000007401DB028B
:0809FA00F80011010301530193
:00000001FF
